:020000040800F2
:1000000008070020B9010008351C00082D1C000855
:10001000311C0008890F0008591C0008000000006E
:10002000000000000000000000000000411C00086B
:100030008D0F0008000000003D1C0008451C000852
:10004000D3010008D3010008D3010008D301000840
:10005000D3010008D3010008D3010008D301000830
:10006000D3010008D3010008D3010008D301000820
:10007000D3010008D3010008D3010008D301000810
:10008000D3010008D3010008D3010008D301000800
:10009000D3010008D3010008D3010008D3010008F0
:1000A000D3010008D3010008D3010008D3010008E0
:1000B0004D1C0008D3010008D3010008D30100083B
:1000C000D3010008D3010008D3010008D3010008C0
:1000D000D3010008D3010008D3010008D3010008B0
:1000E000D3010008D3010008D301000800F002F892
:1000F00000F053F80AA090E8000C82448344AAF16F
:100100000107DA4501D100F048F8AFF2090EBAE86C
:100110000F0013F0010F18BFFB1A43F0010318473B
:100120007032000090320000103A24BF78C878C1C5
:10013000FAD8520724BF30C830C144BF04680C60ED
:10014000704700000023002400250026103A28BF35
:1001500078C1FBD8520728BF30C148BF0B60704739
:10016000662903F09980732900F08084002070478D
:100170001FB59DE8030000F023FA00F039FD0400EC
:100180000020002102F034FCE06000F0B5F81FBD53
:1001900010B5002000F06EFC10BD00F003FD11460C
:1001A000FFF7E6FF01F0A0FF00F038FE03B4FFF711
:1001B000EFFF03BC00F0DAF909488047094800471F
:1001C000FEE7FEE7FEE7FEE7FEE7FEE7FEE7FEE707
:1001D000FEE7FEE704480549054A064B7047000064
:1001E000491C0008ED000008080100200807002055
:1001F000080300200803002053EA020C00F0698085
:100200002DE9F04B4FF00006002B1FBFB3FA83F52A
:1002100003FA05F424FA05F65E4012BF1643B2FA5B
:1002200082F502FA05F4C5F120051EBF22FA05FC8D
:1002300044EA0C04203556EA044C4FEA144418BF33
:10024000641C4FF000084FF00009904271EB030C62
:1002500039D3002919BFB1FA81F701FA07F6B0FACC
:1002600080F700FA07F6C7F120071EBF20FA07FC47
:1002700046EA0C062037B6FBF4FCA7EB0507103F57
:1002800007F01F0BCBF120062CFA06F60CFA0BFB3D
:1002900044BFB3460026202FA4BF5E464FF0000B9C
:1002A0005BEA060C08BF4FF0010B19EB0B0948EB9A
:1002B0000608ABFB027C06FB02CC0BFB03CCC01B8D
:1002C00071EB0C01C1E70B46024641464846BDE8CA
:1002D000F08B13B5084318BF4FF0FF300146AFF362
:1002E0000080BDE81C4070470B460146184600F0F0
:1002F0009FB870477047704770B5064C7C44064DF8
:100300007D4404E02046016808448047241DAC4237
:10031000F8D170BDCC300000CC30000070B506467E
:1003200000F02EF9056806F10B0020F00704B44236
:100330009CBF002070BD2B466A68BAB11068A0420D
:1003400010D304F1080188423CBF5068586007D3BD
:100350005168101941601168091B016058601460F0
:10036000101D70BD13465268002AE7D12146284669
:1003700000F012F90028DED170BD70B50446051FEB
:1003800000F0FEF80068002C14BF446870BD002C1B
:1003900018BFAC423CBF20466468F8D301680A1815
:1003A000AA4218BF456003D12A680546114401607E
:1003B00028684119A1421CBF6C6070BD616869600A
:1003C00021680844286070BD70B50C460546012AB6
:1003D00005D02878800600D5EA69002302E00123D1
:1003E00005E05B1C934202D2E05C0028F9D1A869C9
:1003F000E618C01AA861286A184428622846AFF394
:10040000008004E0D5E9012114F8010B9047B442C3
:10041000F8D32846AFF3008070BD10B5002000F07F
:100420004AFBFFF7B5FEBDE81040012000F09EB882
:100430002DE9F041074615460E461020FFF76EFFE6
:1004400004000AD06760C4E9026500F09DF8016805
:10045000216004600020BDE8F0810120FBE7032A51
:1004600040F2308010F0030C00F0158011F8013BD1
:10047000BCF1020F624498BF11F801CB00F8013BB8
:1004800038BF11F8013BA2F1040298BF00F801CB7C
:1004900038BF00F8013B11F0030300F01383083A62
:1004A000C0F0088051F8043B083A51F804CBA0E8AA
:1004B0000810F5E7121D5CBF51F8043B40F8043BFF
:1004C000AFF30080D20724BF11F8013B11F801CB34
:1004D00048BF11F8012B24BF00F8013B00F801CB05
:1004E00048BF00F8012B7047431A28BF9A427FF695
:1004F000B6AF10441144032A40F2268010F0030FD7
:100500001EBF11F8013D521E00F8013D10F0030F0F
:100510007FF4F6AF11F0030300F01983083AC0F03E
:100520000B8051F8043D083A51F804CD40F8043DE1
:1005300040F804CDFFF7F3BF121D5CBF51F8043D36
:1005400040F8043DAFF30080D20724BF11F8013D0D
:1005500011F801CD48BF11F8012C24BF00F8013D6E
:1005600000F801CD48BF00F8012C70470149182060
:10057000ABBEFEE7260002000048704710000020D6
:1005800000487047180000200048704748000020CD
:10059000704770477047704738B504460A460020D8
:1005A0006946AFF30080002808BF38BD02460099B5
:1005B000204600F021FB012038BD012000F054BC92
:1005C000F8B5AFF30080054600200C46102000BFB0
:1005D0000646A819A0420DD9324669460020AFF35D
:1005E0000080070008BF00F03FFC0098A04218BF41
:1005F0000546C419FFF7C4FF05600746F01D20F04B
:1006000007004619284600F00AF8B44208BFF8BDB2
:10061000A21B31463868BDE8F84000F0EDBA002171
:100620000160C0E901107047102070472DE9FF4FAD
:100630000C461E464FF0FF378BB0D2E90001DDF8C3
:1006400060800A908A46C1F30A5505B93D460021EB
:1006500008464FF00000BAF1000F00F4400005DA40
:1006600000EB80004FF4400101EA50004FEA90593E
:10067000B9F1010F00DDB9460A9850EA4A000ED0E0
:1006800044F61050A5F2FF3545432F14B8F1000F82
:100690001ED07542291E1EDDC9F100021CE0B8F112
:1006A000010F4FF0000001D0302103E0F24305E0DC
:1006B0002154401CB042FBDB304600220021215473
:1006C0000B99C1F80880C1E900200FB0BDE8F08F98
:1006D000BD1B6D1CDEE74A4600DA694206A800F041
:1006E0002BFB06AB93E8070003AB83E807005046FB
:1006F0000A9901F0A0FD8DE80700A0F500501F3811
:1007000000900398002D0ADD42F21F014A4608447A
:10071000002303A90390684602F00AF809E0A0F557
:1007200000504A461F38002303A90390684602F090
:1007300014F88DE807000004000C03D04FF0FF30E0
:10074000410800E01046B8F1000F03D000220092EB
:1007500015461EE0751E05D400F068FA3032625569
:100760006D1EF9D5B3460122084302D000227F1C3A
:1007700004E02078302801D100227F1E002A09974A
:1007800084D01DE0112D07DA00F050FA30326255A6
:100790006D1C50EA0102F5D1084302D00098C8B19F
:1007A0000EE00021681E05E0235C625C6354225465
:1007B000401E491C8142F7DBAB46A81B401E099036
:1007C000002004F80B000B98099AC0F80880C0E9D3
:1007D000002B7AE711264FF0000857E72DE9F04F7C
:1007E00088460446D21D22F0070191B0D1E90001EC
:1007F000CDE90A0102F0E8F802460B98C00F01D0DB
:100800002D2007E02068810701D52B2002E0202160
:1008100001EAC000032A099001D0072A05DB03463C
:100820004146204600F048FA0BE12078800601D5C9
:10083000E06900E00620B8F1650F814606D0B8F106
:10084000660F18D0B8F1670F70D131E00020B9F110
:10085000110F009001DB112301E009F101030AAA45
:1008600001A90CA8FFF7E2FEDDE90C70002609F1F2
:100870000105834647E001204B4600904FF00047BA
:100880000AAA01A90CA8FFF7D1FEDDE90DB00C9969
:100890005D46002610B909F101000D18B9EB0500FD
:1008A00003D4C0F1FF3609F10105A5EB09002BE0E7
:1008B000B9F1010F01DA4FF001090020B9F1110F70
:1008C0000090484601DD112300E003460AAA01A971
:1008D0000CA8FFF7ABFEDDE90C704D460026834601
:1008E000207800070AD4AB4500DA5D4601A8012D47
:1008F00004DD411911F8011C302907D04F4502DAF7
:1009000017F1040F04DA012082460FE06D1EEEE7B6
:10091000002F02DCED1B3E4403E0781CA84200DD02
:100920007D1CB81B00F1010A4FF00047207800073A
:1009300003D4AA4501DB4FF0FF3A0021B7F1004F85
:100940000DF143088DF8431024D002202B23002FF3
:1009500001DA7F422D230A21021EA0F1010000DCF2
:100960005FB197FBF1FC97FBF1F201FB1C7C174692
:100970000CF1300C08F801CDEEE7A8F1010003708E
:100980002188090501D5452100E06521A0F1010874
:1009900000F8011C09980FA9A1EB0807FF1D00B181
:1009A0000120411901EBEA70A1693844081A401E80
:1009B000A0612078C00602D42046AFF300800998D9
:1009C00028B1D4E901219047206A401C2062207898
:1009D000C00622D52046AFF300801EE0002E04DBC7
:1009E000B34502DD01A8805D00E03020D4E901219B
:1009F0009047206A401C2062761CAAF101005FEA41
:100A0000000A0AD100F0F4F8C0680168405CD4E93B
:100A100001219047206A401C2062281EA5F1010593
:100A2000DCDC07E0D4E9012118F8010B9047206ACB
:100A3000401C2062381EA7F10107F3DC2046AFF30B
:100A40000080032011B041E610B5436913B1AFF344
:100A5000008001E0FFF7B8FC012010BD127800F122
:100A600024010A7000224A700122EDE711684FF05C
:100A7000FF32E9E72DE9F0410646FFF785FD8046A4
:100A8000454613E016B1E068B0420ED120682860F8
:100A9000D4E90101D8F8007088472046FFF76DFCC3
:100AA000D8F80000B842EBD100E025462C68002CB5
:100AB000E8D1BDE8F08110B500F0BEF9BDE8104006
:100AC00000F0B5B910B5203AC0F00B80B1E818506D
:100AD000A0E81850B1E81850A0E81850203ABFF428
:100AE000F5AF5FEA027C24BFB1E81850A0E81850C7
:100AF00044BF18C918C0BDE810405FEA827C24BF1B
:100B000051F8043B40F8043B08BF7047D20728BFA8
:100B100031F8023B48BF11F8012B28BF20F8023BF7
:100B200048BF00F8012B7047431A28BF9A427FF64E
:100B3000C9AF1044114410F0030F1EBF11F8013D5E
:100B4000521E00F8013D10F0030F7FF4F6AF103A8B
:100B5000C0F00A8010B531E9185020E91850103A59
:100B6000BFF4F9AFBDE81040530724BF31E90810C6
:100B700020E9081044BF51F8043D40F8043D12F04C
:100B8000030F08BF7047D20728BF31F8023D48BFA6
:100B900011F8012C28BF20F8023D48BF00F8012CB5
:100BA000704770477546FFF7E7FCAE46050069469B
:100BB000534620F00700854618B020B5FFF70AFB22
:100BC000BDE820404FF000064FF000074FF000084E
:100BD0004FF0000BAC46ACE8C009ACE8C009ACE88B
:100BE000C009ACE8C00921F007018D46704700003C
:100BF0000048704730000020034640688C460028BB
:100C000018BF88423CBF03464068F8D318681844B0
:100C1000884207D00CF1030020F00700001D411AA4
:100C2000521A0146081D0A60FFF7A7BB30B5B0F1A4
:100C30000A0271F100034FEA900E4EEA817EB0EB9A
:100C40000E0061EB91014FEA101E4EEA017E10EB9F
:100C50000E0041EB11114FEA102E4EEA016E10EB1F
:100C60000E0041EB11214FEA104E4EEA014E10EBFF
:100C70000E0041EB1141401841F100014FEAD00054
:100C800040EA41704FEAD1014FEA810444EA90748E
:100C900010EB800544EB01046D1944EB0404521B76
:100CA000A3414FF0000348BF0A3200D530BD401CBD
:100CB00041F1000130BD00002DE9F0411F4604461E
:100CC00003260168072A01F4006004DB08B116A5B9
:100CD00005E016A503E008B115A500E015A521F073
:100CE00010002060A069C01EA0610FB1401EA0616D
:100CF0002046AFF300804FB1D4E901213846904738
:100D0000206A401C2062C01C206206E0206AFAE7CC
:100D1000D4E9012115F8010B9047761EF8D2204640
:100D2000AFF30080BDE8F0814E414E006E616E0071
:100D3000494E4600696E66002DE9F0478146164629
:100D40008AB0354878440DC88DE80D0032487844A3
:100D5000801C03AC0DC884E80D0041F69B300844AC
:100D6000372190FBF1F290FBF1F5A5F1800501FB35
:100D700012041B3C02D56442012000E00020DFF891
:100D800098A080460027FA44AAF1BE0A0EE0E007C8
:100D90000AD03246684607EB470101230AEB81017E
:100DA00001F0DBFC8DE8070064107F1C002CEED105
:100DB000194F7F44AE3F19E0E80715D007EB041048
:100DC0000DF1180A90E80E008AE80E00C068F042A3
:100DD00001D1981908903246012306A903A801F011
:100DE000BCFC03AB83E807006D10641C002DE3D14D
:100DF0004FF0010332466946B8F1000F03A802D054
:100E000001F096FC01E001F0A8FCC9E90001C9F875
:100E100008200AB0BDE8F087D025000010B50446D0
:100E2000AFF300802046BDE81040FFF7BFB90028AF
:100E300001D0FFF79BBB704710B5002102A000F066
:100E40001AF8012010BD0000534947414252543A5C
:100E50002041626E6F726D616C207465726D696E97
:100E60006174696F6E00000010B500F01DF8BDE8F8
:100E70001040FFF7DCBF70B505460C460A2000E0C5
:100E80006D1C00F079F835B128780028F8D102E01F
:100E9000641C00F071F814B120780028F8D1BDE886
:100EA00070400A2000F068B810B5012805D0002174
:100EB00003A0FFF7E0FF012010BD09A1F8E7000043
:100EC00053494752544D454D3A204F7574206F6633
:100ED0002068656170206D656D6F7279000000009B
:100EE0003A2048656170206D656D6F727920636F7F
:100EF00072727570746564004FF0013C50F8042BF9
:100F000051F8043B9A4221D1A2EB0C03934313EA1C
:100F1000CC1317D150F8042B51F8043B9A4215D149
:100F2000A2EB0C03934313EACC130BD150F8042B20
:100F300051F8043B9A4209D1A2EB0C03934313EA04
:100F4000CC13DBD04FF00000704700BFD01A01BABD
:100F5000B1FA81F101F0180122FA01F0CB40DBB2C5
:100F6000C0B2C01AC1F120012CFA01F3D11A914389
:100F700011EAC311E6D1704708B569468DF8000043
:100F80000320ABBE08BD0000FEE700007047000074
:100F900040F20410C2F200000068704740F2000006
:100FA00040F20411C2F20000C2F2000100780A68A7
:100FB000104408607047000080B542F20000C4F29F
:100FC0000200016841F010010160032000F08EF87A
:100FD0000F2000F005F800F027F8002080BD000089
:100FE00070B540F20006C2F2000640F20801327805
:100FF000C2F200014FF47A730968B3FBF2F20446BF
:10100000B1FBF2F1084600F051FB0F2C4FF0010547
:1010100008D838B94FF0FF3021460022002500F0F3
:1010200039F87460284670BD82B041F21800C4F2ED
:1010300002000168022241F001010160016801F033
:10104000010101910199416841F08051416040687E
:1010500000F08050009000980420C4F20100016864
:1010600062F31A61016002B070470000002848BFB7
:101070007047C1B200F01F00012202FA00F04EF2E8
:101080000012CEF2000242EAD10121F00301086011
:101090007047000010B54EF60C5CCEF2000CDCF888
:1010A0000030C3F3022E8EF00704042C28BF042462
:1010B000BEF103034FF0FF3E0EFA04F438BF0023E5
:1010C000A14399400EFA03F39A43114300F00F0233
:1010D00000F160430901043A03F5644362440028C7
:1010E00048BF02F10C03197010BD00004EF60C5100
:1010F000CEF200010A684FF6FF031A4060F30A229D
:1011000042F0806040F0FD7008607047704700005A
:101110002DE9F04381B0002800F0858042F20008FC
:10112000C4F202080446D8F800000D4600F007009B
:1011300088420CD2D8F8000020F007002843C8F8F5
:101140000000D8F8000000F00700A8426BD120682A
:1011500041F204098107C4F2020917D5410705D5F8
:10116000D9F8001041F4E061C9F80010010705D575
:10117000D9F8001041F46051C9F80010D9F80010F6
:10118000A26821F0F0011143C9F80010C00741D155
:10119000D8F8000000F00700A8420CD9D8F80000E9
:1011A00020F007002843C8F80000D8F8000000F03D
:1011B0000700A84237D12068410707D5D9F80010A9
:1011C000E26821F4E0611143C9F80010000708D576
:1011D000D9F80000216920F4605040EAC100C9F844
:1011E0000000D9F8002002F00C00082841F200208D
:1011F000C0F27A0050D143F24233C2F38341C0F6C9
:101200000003595CD2033BD440F60010C0F23D000D
:10121000484341E0606802280AD001282AD159F8E1
:10122000041C890308D4012001B0BDE8F08300BF8D
:1012300059F8041C8901F6D5D9F8001021F00301F2
:101240000843C9F80000FFF7A3FE064641F28837BD
:10125000D9F80000616800F00C00B0EB810F97D066
:10126000FFF796FE801BB842F2D9032001B0BDE81B
:10127000F08300BF59F8041C8907D4D5DCE700BF10
:10128000D9F8002043F23033C2F34042C0F60003E5
:101290009A5C4843B0FBF2F0D9F8001043F23232C6
:1012A000C1F30311C0F60002515C40F2080220FABB
:1012B00001F140F20400C2F200000068C2F2000234
:1012C0001160FFF78DFE002001B0BDE8F083000043
:1012D0004C20C4F2422001210160704710B541F258
:1012E0000804C4F202042068000658BF10BDFFF7CE
:1012F0000DFF8020A07010BD2DE9F04182B00028C4
:1013000068D00446007841F20006C007C4F2020625
:1013100025D0706800F00C0004281BD0706800F025
:101320000C00082802D17068C00313D4606800283C
:1013300000F06881B0F5A02F00F07C81B0F5803F0F
:1013400000F07C81306820F480303060306820F418
:10135000802076E13068800301D56068D0B32078C2
:10136000800718D5706810F00C0F07D0706800F077
:101370000C0008286ED17068C0036BD430688007F9
:1013800002D52069012825D13068616920F0F80074
:1013900040EAC1003060207800071FD42078400761
:1013A00032D4E56995B1706800F00C00082840F06F
:1013B0008F80012D0ED07068216A00F480328A423D
:1013C00008D1616A00F47010884203D1002002B095
:1013D000BDE8F081012002B0BDE8F081A0690028DD
:1013E00062D00020C4F242200121C0F88014FFF72F
:1013F000CFFD0546706A800700F18C80FFF7C8FDBD
:10140000401B0228F6D92AE1F06910F0805808D173
:10141000F06940F08050F061F06900F08050009079
:10142000009847F20007C4F200073868C00529D4C5
:10143000386840F480703860FFF7AAFD054600BFA9
:101440003868C0051ED4FFF7A3FD401B6428F7D9F8
:1014500005E100BF2069002840F20000C4F24220EC
:1014600000F0828001210160FFF792FD054600BF78
:10147000306880073FF588AFFFF78AFD401B0228E0
:10148000F6D9ECE0E068002800F08080052800F044
:101490009780012800F09880306A20F001003062C7
:1014A000306A20F0040092E00020C4F242200021C3
:1014B000C0F88014FFF76CFD054600BF706A800716
:1014C0007FF56CAFFFF764FD401B0228F6D9C6E03C
:1014D0000027C4F2422700203866FFF759FD022D8D
:1014E00005460BD13068800140F1BE80FFF750FD0A
:1014F000401B02284FF00300F4D968E730688001F0
:101500007FF564AFFFF744FD401B02284FF0030056
:10151000F4D95CE740F20800C2F20000006844F62B
:10152000D351C1F26201A0FB0101480A019000BF42
:1015300000BF0198411E002801913FF42FAF00BF6A
:101540000198411E002801913FF428AF00BF019887
:10155000411E002801913FF421AF00BF0198411EB8
:1015600000280191E4D119E700210160FFF710FD87
:10157000054600BF306880077FF50DAFFFF708FD17
:10158000401B02284FF00300F4D920E7306A20F016
:1015900001003062306A20F004003062FFF7F8FC8E
:1015A000054641F2883700BF306A800720D5FFF733
:1015B000EFFC401BB8424FF00300F5D907E700BF2E
:1015C000306A40F004003062306A40F0010030625E
:1015D000FFF7DEFC054641F2883700BF306A80071E
:1015E00006D4FFF7D5FC401BB842F7D937E000BF5F
:1015F000B8F1000F7FF4D5AEF06920F08050F061B3
:10160000CFE600BF306820F480303060306820F4CE
:1016100080203060FFF7BCFC054600BF30688003C7
:101620007FF59DAEFFF7B4FC401B64284FF003002C
:10163000F4D9CCE6306840F480203060306840F463
:1016400080303060FFF7A4FC054600BF306880039F
:101650003FF585AEFFF79CFC401B6428F6D90320BC
:1016600002B0BDE8F08100BF206AB0F5803F05D12F
:101670007168A26821F40031114371607168626A77
:1016800021F4741111430843706001203866FFF79C
:101690007FFC0446306880013FF598AEFFF778FC88
:1016A000001B02284FF00300F4D990E6411E0020F1
:1016B000B0EB116F1CBF012070474EF21002CEF24A
:1016C000000251604EF62351CEF20001F0230B7060
:1016D000072190601160704770470000704700005C
:1016E00010B590F83C20012A4FF0020233D080F868
:1016F0003D200268D2F804E0D2F808C00C682EF051
:101700007003234340F2FF74C4F20004A24253600A
:101710000ADCB2F1804F13D040F20043C4F2000360
:101720009A420DD011E000BF42F60043C4F201031B
:101730009A4205D040F60003C4F200039A4204D155
:1017400049682CF08003194391600121002280F840
:101750003D1080F83C20104610BD0000002804BF5A
:101760000120704710B5044690F83D0028B90020CC
:1017700084F83C00204600F067F8022084F83D0021
:10178000206840F2FF730268C4F2000342F6004C86
:101790009842C4F2010C15DCB0F1804F1AD040F22F
:1017A0000041C4F20001884214D0984218DCB0F124
:1017B000804F1DD040F20041C4F20001884217D092
:1017C0001AE000BF604505D040F60001C4F20001F8
:1017D0008842EAD1A16822F070020A439842E6DD0D
:1017E000604505D040F60001C4F20001884203D1F3
:1017F000216922F440720A43A36922F08001D4F8DF
:1018000004E0E268194360450160C262C0F828E064
:1018100002D16169CCF8301001214161002084F8C7
:10182000461084F83E1084F83F1084F8401084F885
:10183000411084F8421084F8431084F8441084F86E
:10184000451084F83D1010BD80B582B00068B0F13D
:10185000804F1CBF02B080BD41F21C00C4F20200E8
:101860000168002241F0010101600068002100F0E0
:101870000100019001981C20FFF70CFC1C2002B015
:10188000BDE88040FFF7F2BB90F83D1001291CBF76
:1018900001207047022180F83D10006840F2FF727D
:1018A000C168C4F20002904241F00101C16009DC4C
:1018B000B0F1804F12D040F20041C4F200018842E2
:1018C0000CD012E042F60041C4F20101884205D07A
:1018D00040F60001C4F20001884206D1816801F09F
:1018E0000701062904BF00207047016841F001018B
:1018F000016000207047000080B590F83C20012A6C
:101900004FF0020200F0BF8080F83D20D0F800C008
:101910004FF67772DCF8083023EA0202CCF8082090
:101920000B683F2B1CDD5F2B20DD602B50D0B3F507
:10193000005F6DD0702B40F0A080D1E901E3C96851
:10194000DCF8082043EA0E0322F47F4243EA012137
:101950001143CCF80810DCF8081041F077018AE058
:101960001F2B29DC63B3102B2AD086E0402B63D0D9
:10197000502B40F08280D1F804E0C968DCF82030B8
:10198000DCF8202022F00102CCF82020DCF818201E
:1019900022F0F00242EA011123F00A0242EA0E02AA
:1019A000CCF81810CCF82020DCF8081041F05701D2
:1019B00021F020015FE000BF202B01D0302B5CD153
:1019C000DCF8081021F07001194341F0070152E0E2
:1019D000D1F804E0C968DCF8203023F01003CCF81B
:1019E0002030DCF81830DCF8202023F4704322F09B
:1019F000A00243EA013142EA0E12CCF81810CCF8EA
:101A00002020DCF8081041F0670121F0100132E0DD
:101A1000D1E901E3C968DCF8082043EA0E0322F4A7
:101A20007F4243EA01211143CCF80810DCF808108A
:101A300041F480411FE000BFD1F804E0C968DCF840
:101A40002030DCF8202022F00102CCF82020DCF845
:101A5000182022F0F00242EA011123F00A0242EAC1
:101A60000E02CCF81810CCF82020DCF8081041F059
:101A7000470121F03001CCF808100121002280F844
:101A80003D1080F83C20104680BD000070470000EB
:101A900010B5016804460869800744BFC8685FEA5A
:101AA000807039D40869400744BFC8685FEA407055
:101AB0003ED40869000744BFC8685FEA007045D497
:101AC0000869C00644BFC8685FEAC0604AD40869B4
:101AD000C0071CBFC8685FEAC07051D10869000622
:101AE00044BFC8685FEA006052D40869400644BF3A
:101AF000C8685FEA406053D40869800646BFC8687A
:101B00005FEA806010BD6FF0200220460A61BDE8E8
:101B10001040FFF7E3BD00BF6FF002000861012035
:101B200020778869800743D02046FFF7AFFF45E064
:101B30006FF00400086102202077886910F4407F6C
:101B400040D02046FFF7A2FF42E000BF6FF0080040
:101B5000086104202077C86980073DD02046FFF740
:101B600095FF3FE06FF01000086108202077C869FA
:101B700010F4407F3AD02046FFF788FF3CE000BFDA
:101B80006FF001000861204600F03EF82168A5E7EB
:101B90006FF0800008612046FFF79EFD2168A4E7F2
:101BA0006FF040000861204600F03EF82168A3E78E
:101BB000204600F025F8204600F024F82168002097
:101BC00020776FE7204600F01BF8204600F01AF857
:101BD0002168002020776CE7204600F011F82046AD
:101BE00000F010F821680020207769E7204600F017
:101BF00007F8204600F006F821680020207766E705
:101C0000704700007047000040F2BC01C2F20001C2
:101C100000680968884218BF704740F27000C2F23D
:101C20000000083000F038B870470000FEE7000000
:101C3000FEE70000FFF752FBFEE7000070470000E0
:101C400070470000FFF7AAB97047000040F2BC00DF
:101C5000C2F20000FFF71CBFFEE7000010B540F223
:101C60007000C2F2000000F1080440F2BC01C2F2B0
:101C70000001204600F05AF941F6517040F200028E
:101C8000C0F60000C0F600022146BDE81040FEF795
:101C90002BBB00008163704770B50446006AD4E92D
:101CA0000A5601302062206A01F0BAF802460B465B
:101CB0002846314601F0C8F801F0B2FAC4E904013F
:101CC00070BD000010B50446C068016851B182685B
:101CD00042B9C26832B1A26B002A1CBFC9685FEA70
:101CE000C1710DD143F25231C0F6000120463B22B2
:101CF00000F040F90020012184F83C1010BD00BF25
:101D000080218161FFF72AFD20B111A120463222F6
:101D1000EEE700BFE068A16B0068C26A806A01322A
:101D200001305043B1FBF0F001F07AF80B4648F275
:101D300080410246C4F22E110020C4E90C2300F0B9
:101D400015FFC4E90A010120012184F83C1010BDEF
:101D50004572726F722054696D6572436F6E747252
:101D60006F6C3A2048414C5F54494D5F4261736546
:101D70005F496E69742829206973206661696C6502
:101D8000642E00002DE9F04F81B00446C068D4E90C
:101D90000AB9D0F80080D8F82400009101F040F88A
:101DA0000546206A0E4601F03BF85A464B4601F0C4
:101DB0004BF82A46334600F031FE01F031FAC4E90F
:101DC0000401D4E904014FF47A720023FEF714FAF7
:101DD000C4E90601D4E9066AD8F8240001F020F825
:101DE0000746206A0D4601F01BF85A464B4601F0A3
:101DF0002BF83A462B4600F011FE01F011FAC4E927
:101E00000401D4E904014FF47A720023FEF7F4F9D7
:101E1000C4E90601D4E90601009A801B61EB0A01BE
:101E2000801A71F10000D7D301B0BDE8F08F000037
:101E300010B5044690F83C0070B1E068FFF724FD4F
:101E400000281CBF012010BD07A12046362200F04B
:101E500091F8002010BD00BF11A120463A2200F0E9
:101E600089F8002010BD00BF4572726F722054695E
:101E70006D6572436F6E74726F6C3A2048414C5FAF
:101E800054494D5F426173655F53746172745F4979
:101E9000542829206973206661696C65642E0000EE
:101EA0004572726F722054696D6572436F6E747201
:101EB0006F6C3A20496E6974206973206E656564A1
:101EC0006564206265666F72652073746172742048
:101ED0007468652074696D65722E00002DE9F0410B
:101EE0000446C068D4E90A560068406A00F098FFCA
:101EF0008046206A0F4600F093FF2A46334600F0E2
:101F0000A3FF42463B4600F089FD01F089F9C4E990
:101F10000401D4E904014FF47A720023FEF76CF94E
:101F2000C4E90601D4E90601BDE8F0810022C0E958
:101F30000022C0E90221C0E90A22C0E90C22826322
:101F40000262C0E90422C0E9062280F83C20704702
:101F500010B5044690F90B00B0F1FF3F02DD2046BA
:101F600010BD00BFA168206821F0004100F0A6F874
:101F7000204610BD70B584B0C37A15460446826809
:101F800058B20A26002822F0004248BF561EAE4230
:101F90008C460FD2616800284FF0000048BF0B4606
:101FA000AA1B8DE8290020463146CDF80CC000F070
:101FB00017F812E02668002858BF264630466146CA
:101FC0002A46FEF791FA94F90B00B0F1FF3F4FF06B
:101FD0000000CCBFE57265607055204604B070BD4E
:101FE0002DE9F04F81B00E464FF6EE71C7F6FF7146
:101FF0001F468B1B934257D3044690F90B00DDF824
:10200000288000284FF6E670D4F80090C3F6FF70E1
:1020100058BFA14686420DD89019B0EB460F98BF25
:10202000700040F00F0101F1010B0B2838BF4FF099
:102030000B0B01E001F1010B584600F041F8B8F13B
:10204000000F054604D0284649464246FEF74CFAA2
:10205000DDE90BA232B10D990C9A05EB0800FEF7F1
:10206000FEF90C9A0AEB08003F1A09D005EB0800AC
:1020700009EB0801104451443A46FEF735FA0C9A30
:10208000711C0B2903D0484600F018F80C9A4BF04D
:10209000004002EB08013944A0600020C4E900516F
:1020A000685401B0BDE8F08FFEF7B7F940F2B80010
:1020B000C2F2000000687047FEF75FB9FFF7FCBF8F
:1020C00010B50446002808BF012400BF2046FEF7D3
:1020D00025F9002818BF10BDFFF7E8FF08B18047B9
:1020E000F4E7002010BD000090B0FEF765FF00246B
:1020F0000120CDE90B44CDE9094406900A904FF444
:10210000E0104FF4803102250F9006A8CDE90714A6
:10211000CDE90D51FFF7F0F8002879D10F20CDE976
:1021200000054FF48060CDE9030468460221029463
:10213000FEF7EEFF00286FD1FFF7CAF841F2180052
:10214000C4F2020001684FF6E85741F02001016037
:1021500001684FF0804201F0200106910699016864
:10216000472341F0040101600068002100F00400F1
:102170000690069840F2BC00C2F200000991CDE939
:102180000711CDE90011C0E9021701618021C0E902
:1021900000238161FFF7E2FA002841D14FF480501B
:1021A000069040F2BC00C2F2000006A9FFF7A4FBB3
:1021B000002839D140F2BC00C2F200006946FFF7A6
:1021C0008FFA002834D140F27007C2F2000707F1FD
:1021D00008044AF20021C0F24A412046FFF75AFDA6
:1021E0002046FFF76FFD2046FFF722FE2046FFF74F
:1021F00075FE05460E4620460221FFF7C3FD204628
:10220000FFF76CFE401BB141C7E90001EEE700BFDC
:10221000EFF3108072B600BFEFF3108072B600BF0C
:10222000EFF3108072B600BFEFF3108072B600BFFC
:10223000EFF3108072B65FEA400C08BF91F0000F18
:102240004FEA8C234FEAC12243EA51514FEA1C5016
:1022500018BF00F5F0404FEA300018BF41F00041D0
:102260005FEA6C5C00F02980BCF1FF3F08BF40F0E2
:1022700080407047130C06BF12044FF0100C4FF053
:10228000000C130E04BF12020CF1080C130F04BF54
:1022900012010CF1040C930F04BF92000CF1020C1C
:1022A000D30F04BF52000CF1010C11464FF0000295
:1022B000A0F11F00A0EB0C00704711F0004F08BF09
:1022C000704731F000413FF4D5AF0B0C06BF090455
:1022D0004FF0100C4FF0000C0B0E04BF09020CF174
:1022E000080C0B0F04BF09010CF1040C8B0F04BF89
:1022F00089000CF1020CCB0F04BF49000CF1010C5A
:10230000CCF1200322FA03F341EA030102FA0CF2B2
:10231000A0EB0C0000F101007047000023F07F47A4
:1023200020F07F4C80EA030000F00040ACEB070394
:1023300003F57C5303F1FF032DE9804909B44FEA0B
:10234000144324EA03484FEA154B25EA0B4E0FF2DB
:10235000042606EB13273E7803FB0667C7F5000744
:1023600007FB06F64FEAD64606F102064FEA543757
:1023700007FB066CCCF1005C4FEA1C472CEA074CCB
:102380000CFB06F507FB06F404EB15464FEA961620
:1023900049085FEA320234BF00204FF000404FEAA4
:1023A000D13706FB07FC4FEA1C4C0CFB0BF7D21B8A
:1023B00003FB0CF761EB07010CFB0EF7B0EB0740DA
:1023C00072EB17420CFB08F734BFA2EB0742B2EBEB
:1023D000074261EB17414FEA0C444FEA910706FBB5
:1023E00007FC4FEA1C4C0CFB0BF7B0EBC74072EB41
:1023F000573203FB0CF734BFA2EBC742B2EBC74224
:1024000061EB57310CFB0EF7B0EBC70072EB577264
:102410000CFB08F734BFA2EBC702B2EBC70261EBBB
:1024200057714FEA816141EA92114FEA826242EAB2
:1024300090124FEA806004EBCC04039F4FEAD1373F
:1024400006FB07FC4FEA1C4C0CFB0BF7D21B03FBF3
:102450000CF761EB07010CFB0EF7B0EB074072EBDA
:1024600017420CFB08F734BFA2EB0742B2EB07425E
:1024700061EB17414FEA8C5504EB9C244FEA91071E
:1024800006FB07FC4FEA1C4C0CFB0BF7B0EBC740FC
:1024900072EB573203FB0CF734BFA2EBC742B2EB2F
:1024A000C74261EB57310CFB0EF7B0EBC70072EB84
:1024B00057720CFB08F734BFA2EBC702B2EBC7029E
:1024C00061EB57714FEA816141EA92114FEA8262F2
:1024D00042EA90124FEA806015EB4C2544F100046B
:1024E0004FEAD13706FB07FC4FEA1C4C0CFB0BF7FD
:1024F000D21B03FB0CF761EB07010CFB0EF7B0EBF3
:10250000074072EB17420CFB08F734BFA2EB0742FF
:10251000B2EB074261EB17414FEA813141EA924148
:102520004FEA823242EA90424FEA80304FEA0C761C
:1025300015EB1C1544F1000448EA03434EEA0B482E
:102540004FF0000EB2EB080C71EB030724BF62469C
:1025500039464EEB0E0E4FF0000B00185241494128
:102560004BEB0B0BB2EB080C71EB03077BF1000B91
:1025700024BF624639464EEB0E0E4FF0000B00189A
:10258000524149414BEB0B0BB2EB080C71EB0307CB
:102590007BF1000B24BF624639464EEB0E0E51EA2A
:1025A000020718BF46F0010616EB0E7655F1000241
:1025B00054F1000103D5BDE88901BDE80088BDE8FC
:1025C0008901BDE80048B619524141EB0101A3F170
:1025D0000103704780807F7E7D7C7B7A7978777677
:1025E00076757473727171706F6E6E6D6C6C6B6AF0
:1025F0006A6968686766666564646363626161608E
:10260000605F5F5E5E5D5D5C5C5B5B5A5A5959580A
:102610005857575656555555545453535252525174
:10262000515050504F4F4F4E4E4D4D4D4C4C4C4BCA
:102630004B4B4A4A4A494949484848474747474611
:10264000464645454544444444434343434242424D
:10265000424141419C46002B30D477002BD04FEAB9
:1026600037071CB503B44FF010004FF01001BAF15A
:10267000000F06D0BCF1000FDCBF40F0080040F0B6
:1026800008014FF000000FBCBDE810400BF1010B3A
:10269000BBF1010F08BF5FEA170722BF12F1010269
:1026A00011F101014FF0004143F1000300F000403F
:1026B00043EA00007047F9D35708D0E746EA0646D8
:1026C0004FEA164613F1400F1FDD13F1200FDFBF55
:1026D00016430A46002120335B42BED0C3F12007D7
:1026E00046EA06464FEA164602FA07F746EA0706A2
:1026F00022FA03F2C3F1200701FA07F742EA0702C0
:1027000021FA03F14FF00003A7E746EA020646EA82
:1027100006464FEA164646EA0106BCBF46EA0646AA
:10272000360C4FF000034FF000024FF0000194E729
:102730002DE9804C70B49A46934691E8380007C85A
:1027400031EA400C48BF34EA430C03D5FFF7E6FDFD
:10275000FFF780FFF0BCBDE8008C2DE9804C70B421
:102760009A46934691E8380007C810F0804F08BF9A
:1027700013F0804F03D100F005F8FFF76BFFF0BCBA
:10278000BDE8008C20F07F4723F07F4C80EA0300F7
:1027900000F0004007EB0C03A3F57C53A3F1FE030C
:1027A00092F0000F00F0B38095F0000F00F07780FA
:1027B0002DE901494FEA114021EA00484FEA144649
:1027C00024EA064700FB06FC08FB06F607FB08F8B0
:1027D00018EB06484CEB164C00FB07F718EB0748C4
:1027E0004CEB17404FEA124B22EA0B4E4FEA1546CC
:1027F00025EA06470BFB06FC0EFB06F607FB0EFE62
:102800001EEB064E4CEB164C0BFB07F71EEB074E70
:102810004CEB174B18EB0B0840F1000018EB0E0BBC
:1028200058EB000840F100008F1A4FF000014FF004
:1028300000063CBFC943661B14BFB5EB040C002166
:102840003CBFC943F61B4FEA174427EA04454FEA49
:102850001C472CEA074C04FB076205FB07F70CFB3F
:1028600005F616EB074642EB174204FB0CFC16EB91
:102870000C4642EB1C421BEB060658EB02024141A0
:102880004EEA8E0E46EA9E0601D5BDE80189B619CC
:10289000524141EB0101A3F10103BDE801894FEA77
:1028A000144524EA05464FEA114721EA074C05FB87
:1028B00007F406FB07F70CFB06F111EB074144EBAD
:1028C000174405FB0CFC11EB0C4144EB1C444FEA94
:1028D000124722EA074C05FB07F206FB07F70CFB41
:1028E00006F616EB074642EB174205FB0CFC16EB0F
:1028F0000C4642EB1C456A1854F1000148BF704772
:10290000B619524141EB0101A3F10103704795F063
:10291000000F37D04FEA114221EA02464FEA14472E
:1029200024EA074C02FB07F106FB07F70CFB06F451
:1029300014EB074441EB174102FB0CFC14EB0C4475
:1029400041EB1C414FEA154725EA074C02FB07F50E
:1029500006FB07F70CFB06F616EB074645EB17459B
:1029600002FB0CFC16EB0C4645EB1C42121951F114
:10297000000148BF7047B619524141EB0101A3F174
:10298000010370474FEA144524EA05464FEA114710
:1029900021EA074C05FB07F106FB07F70CFB06F2E3
:1029A00012EB074241EB174105FB0CFC12EB0C420A
:1029B00051EB1C414FF0000648BF7047921841EBA5
:1029C0000101A3F101037047490050EAC12018BF7B
:1029D00004204A0D18BF40F0010040F2FF72B2EB34
:1029E000515F08BF40F00200012808BF0520704772
:1029F00010B500290AD00878002807D00548784487
:102A0000FEF77AFA002801D0002010BD0248784471
:102A100010BD0000B2090000AA09000010B591EA3B
:102A2000030F48BF83F0004300F11483841A71EB55
:102A3000030C05D2121943EB0C03001B61EB0C01D4
:102A40004FEA1154A4EB135CDFF81CE11EEA430FBC
:102A500018BF9EEA445F00F0748021EA045123EA23
:102A60000E0343F48013DCF1200E32D322FA0CFE65
:102A700010EB0E0023FA0CFE41EB0E01CCF1200E00
:102A800003FA0EFE10EB0E00CCF1200E51F1000106
:102A9000B1F5801F32D201EB045112FA0EF2BDE8FB
:102AA000104058BF7047401C38BF5FEA420218BF51
:102AB0007047002814BF20F0010041F100014FEAE7
:102AC000410313F5001F38BF7047A1F1C04100F06A
:102AD000B3BA012A43EB0302ACF1200CDCF11F0E68
:102AE00032BF4FF0000E23FA0CF310EB030041EB62
:102AF0000451B4EB115FD0D0A1EB045101F580116A
:102B0000490801EB04515FEA30000ED350F1000098
:102B100038BF12FA0EFE08D1BDE81040C9E7401CCC
:102B200038BF5FEA4202CAD1C3E7BDE810404FEAAE
:102B3000410313F5001F38BF7047A1F1C04100F0F9
:102B40007BBA9EEA445F08D011EA5E0FBDE81040F0
:102B500004BF01F0004100207047BDE8104070B58F
:102B600000F01CFA64FBBE3E0000E0FF2DE9C0410E
:102B700030B4DFF8A4C23CEA111418BF3CEA1314C5
:102B800000F0ED801CEA111481EA030544EAD574D3
:102B900018BF1CEA131500F0C880A4EB050404F16B
:102BA0007F7404F500344FF0004545EAC12145EA41
:102BB000C32341EA505143EA52534FEAC0204FEA3F
:102BC000C222994208BF904200F09D804FEA1365EF
:102BD0000FF24416765D4FEA134506FB05F7C7F181
:102BE000807706FB07F74FEAD737A7FB03687642E3
:102BF000A7FB06CEC8F5803838BFA8F1010807FB4F
:102C000008E6A6FB028C4FF0000EE6FB03CEDCF1DB
:102C1000000CCEF1004E38BFAEF1010EA6FB0C58F1
:102C20004FF00007E6FB0E87A1FB08C6A0FB07CE0E
:102C300016EB0E064FF0000545F10005E1FB0765B8
:102C400015F1E04E7EBFA4F580345FEA46066D4183
:102C500016F1800745F100054FEA172747EA056797
:102C60004FEA15254FEA0666A6F1DE46B6F1805F0B
:102C700020D9384605EBC47124F0010C01EB0C118E
:102C8000BCF1FE6F02D8F0BCBDE8008124425CBFFD
:102C900001F5801E9EEAC47F02D4F0BCBDE800812D
:102CA000244200F13980A1F1C041F0BCBDE80041EF
:102CB00000F0C2B94FEAD02040EA41504FEAD1219A
:102CC0004FEAD22242EA43524FEAD323A7FB0286BD
:102CD00007FB036605FB02661EEA0E0F58BFA6EB54
:102CE0000056B6EB00564FEA520E4EEAC37E18EB82
:102CF0000E0E56EB530EBCD518EB02085E417F1C3E
:102D000055F10005B5E74FF480154FF000074FF07F
:102D100000064FF00008ACE701F1C04101F00041AE
:102D20004FF00000F0BCBDE800810CEA131511EA79
:102D30000C1F00D00CE013EA0C1F00F026804FF0AF
:102D4000000081EA030101F00041F0BCBDE8008110
:102D5000F0BCBDE8004181EA030100F06DB9F0BCB0
:102D6000BDE8004170B500F019F900BF097EFC3ED6
:102D700000F007B84FF0000081EA030101F00041C4
:102D8000704781EA030100F057B9F0BCBDE800418B
:102D900022494FF000007047FFFDFBF9F7F5F4F210
:102DA000F0EEEDEBE9E8E6E4E3E1E0DEDDDBDAD8E6
:102DB000D7D5D4D3D1D0CFCDCCCBCAC8C7C6C5C444
:102DC000C2C1C0BFBEBDBCBBBAB9B8B7B6B5B4B35B
:102DD000B2B1B0AFAEADACABAAA9A8A8A7A6A5A446
:102DE000A3A3A2A1A09F9F9E9D9C9C9B9A9999980A
:102DF0009797969595949393929191908F8F8E8EAD
:102E00008D8C8C8B8B8A8989888887878685858439
:102E100084838382828181800000FF070000F87F25
:102E2000B0FA80F310FA03F10AD0C3F11D0303F5E1
:102E300080634FEA03524FEA415002EBD1217047C1
:102E40004FF000007047000070B5DFF848C11CEA81
:102E5000111E1EBF1CEA13159EEA0C0F95EA0C0FFB
:102E600000F06F8081EA03044EEAD47EAE4421EA8A
:102E70004C1123EA4C1341F4801143F48013AEF15A
:102E80007F7EA1FB024CA0FB0365361955EB0C05B8
:102E9000A1FB034C4CF10003A0FB021C16EB0C063B
:102EA000654153F10003094218BF46F0010613F4CF
:102EB000007F0BD14FEA03314FEA053041EA15514B
:102EC00040EA165034036FF003020AE04FEAC321D0
:102ED0004FEAC52041EA555140EA5650F4026FF0DE
:102EE000020202EB2E4201EB025585EACE710AD0B6
:102EF0005FEA440C18BF24F0004450F1000041F197
:102F0000000120EAD47040F2FE7C624500D270BD20
:102F1000A84214BF4FF080444FF04044002E08BF39
:102F20000024BEF1806FA8BFA1F1C041BDE8704090
:102F300080F2828001F1C04101F000414FF00000B9
:102F400070470CEA13159EEA0C0F18BF95EA0C0F98
:102F500006D081EA030E4FF000000EF0004170BD74
:102F600000F01CF88900013E00F007B800F009B835
:102F70004FEA430C5FEA5C5C08D081EA030100F091
:102F80005BB84FEA410C5FEA5C5CF6D102494FF056
:102F9000000070470000FF070000F87F0EF1020EEE
:102FA0002EF0030E5EF8046B364205D4012A43EB83
:102FB000030515F5001F12D8012841EB010C1CF583
:102FC000001F0CD80ED14FEAD17C0CEB4C0C0CF14D
:102FD000020C15F5001F08BF4CEBD37C04E04FF04A
:102FE000080C01E04FEAD37C0CEB4C0526FA05F601
:102FF00006F00706B6F1040C06D20EEB860CBDE80F
:1030000070404CF0010C6047DFE80CF0090B020245
:103010004FF00041A1F500214FF0000070BD1946AE
:103020001046012851EB010418BFD4F5001484BFE9
:10303000002001F0004170BD0808A0F500114FEA22
:103040003101704710B591EA030F48BF83F0004388
:103050003FF5ECAC841A71EB030C07D28CF0004CFA
:10306000121943EB0C03001B61EB0C014FEA1154E6
:10307000A4EB135CDFF8A4E11EEA430F18BF9EEA3D
:10308000445F00F0B48021EA045123EA6E03524207
:10309000C3EB6E0338BF5B1EDCF1200E25D322FA92
:1030A0000CFE10EB0E0043FA0CFE41EB0E01CCF1CE
:1030B000200E03FA0EFE10EB0E00CCF1200E51F1A3
:1030C000000129D401EB045112FA0EF2BDE81040C0
:1030D00058BF7047401C1CBFB2F1004F704700281A
:1030E0000CBF491C20F00100704712EB020E43EBAD
:1030F000030218BF4FF0010E4EEA4202ACF1200C61
:10310000DCF11E0E56D943FA0CFE10EB0E00CCF18A
:103110001E0E51F1FF31D5D50EF1010E12FA0EFE41
:10312000404141EB010101EB445C5FEA5C5C10D97A
:1031300001EB045110EBDE7038BFBEF1004FBDE86B
:10314000104018BF704700280CBF491C20F0010038
:10315000704734D24FEAD42C24F4006411F50011E6
:103160001BD0B1FA81F20B3AA41AA41ED2F12003AB
:10317000914030FA03F31943904001EBCC7101EB1D
:103180000451002CBDE81040A8BF704701F1C041B8
:1031900001F000414FF000007047B0FA80F310FAE0
:1031A00003F102D1BDE810407047E41A173C48050E
:1031B000C90AE2E701EB0451BDE81040704749102D
:1031C0004FEA300001EB0451BDE8104002E04FF03F
:1031D000000170474A0008BF0042F8D0B2F5001F56
:1031E00028BF704701F000414FF0000070479EEA91
:1031F000445F07D011EA5E0FBDE8104004BF002114
:1032000000207047BDE8104070B5FFF7C7FE00BF53
:1032100040DFF63E104683F0004170470000E0FFBB
:103220000A154FEAC12343EA50534FEAC02C18BF96
:1032300043F000431BD4A2F24E02D2F57C72C0F2DE
:103240002080502AA8BF502223FA02F12CFA02F063
:10325000D2F1200260B484BF03FA02F52843C2F120
:1032600000029CBF23FA02F5284360BC704701F1BD
:10327000804212F5801F04DA4FF000004FF0000189
:10328000704770B5FFF78AFE49922480002001E064
:103290006FEAE17001467047FDF7A0BA02400000F6
:1032A000000000A00000000005400000000000C871
:1032B000000000000C4000000000409C00000000E6
:1032C000194000000020BCBE000000003440000097
:1032D000BFC91B8E00000004B5400000504BCFD08A
:1032E0006607E2CF010000006C4100003E8251AA57
:1032F000DFEEA73401000000D9420000DCB5A0E2F7
:103300003A301F97FFFFFFFFB4450000FD25A0C81E
:10331000E9A3C14FFFFFFFFFFF3F00000000008057
:1033200000000000FF3F00000000008000000000DF
:103330000102000000000000000001020304060773
:10334000080902030405060708090A0B0C0D0E0FF5
:1033500010104572726F722054696D6572436F6E02
:1033600074726F6C3A204F6E65206F7220736F6DB0
:103370006520706172616D6574657273206172653C
:10338000206E6F7420636F72726563742E0000008C
:10339000D0330008000000201000000028010008C1
:1033A000E033000810000020F80600004401000887
:1033B0001C00000043000000F8FFFFFF0C000000AD
:1033C0000E0000000F0000002E00000091E8FFFF3B
:1033D00001000000100000000024F40000000000C4
:04000005080000ED02
:00000001FF
