:020000040800F2
:10000000C806002089010008ED0E0008E50E000872
:10001000E90E000845020008110F0008000000006A
:10002000000000000000000000000000F90E0008C1
:100030004902000800000000F50E0008FD0E00084F
:10004000A3010008A3010008A3010008A301000800
:10005000A3010008A3010008A3010008A3010008F0
:10006000A3010008A3010008A3010008A3010008E0
:10007000A3010008A3010008A3010008A3010008D0
:10008000A3010008A3010008A3010008A3010008C0
:10009000A3010008A3010008A3010008A3010008B0
:1000A000A3010008A3010008A3010008A3010008A0
:1000B000050F0008A3010008A3010008A301000820
:1000C000A3010008A3010008A3010008A301000880
:1000D000A3010008A3010008A3010008A301000870
:1000E000A3010008A3010008A301000800F002F822
:1000F00000F03AF80AA090E8000C82448344AAF188
:100100000107DA4501D100F02FF8AFF2090EBAE885
:100110000F0013F0010F18BFFB1A43F0010318473B
:10012000500F0000700F0000103A24BF78C878C14B
:10013000FAD8520724BF30C830C144BF04680C60ED
:10014000704700000023002400250026103A28BF35
:1001500078C1FBD8520728BF30C148BF0B60704739
:100160001FB51FBD10B510BD00F031F81146FFF7E7
:10017000F7FF00F0CFFE00F04FF803B4FFF7F2FFF7
:1001800003BC00F057F800000948804709480047C1
:10019000FEE7FEE7FEE7FEE7FEE7FEE7FEE7FEE737
:1001A000FEE7FEE704480549054A064B7047000094
:1001B000010F0008ED000008C8000020C80600205C
:1001C000C8020020C802002070477047704775467B
:1001D00000F02CF8AE4605006946534620F00700B3
:1001E000854618B020B5FFF7DDFFBDE820404FF091
:1001F00000064FF000074FF000084FF0000BAC4630
:10020000ACE8C009ACE8C009ACE8C009ACE8C0097A
:1002100021F007018D46704710B50446AFF300800A
:100220002046BDE81040FFF7A8BF00000048704717
:100230001000002001491820ABBEFEE72600020096
:1002400070470000FEE700007047000040F2C00069
:10025000C2F200000068704740F2000040F2C001A6
:10026000C2F20000C2F2000100780A68104408607F
:100270007047000080B542F20000C4F2020001683D
:1002800041F010010160032000F08EF80F2000F013
:1002900005F800F027F8002080BD000070B540F29E
:1002A0000006C2F2000640F208013278C2F20001F4
:1002B0004FF47A730968B3FBF2F20446B1FBF2F132
:1002C000084600F051FB0F2C4FF0010508D838B953
:1002D0004FF0FF3021460022002500F039F874600D
:1002E000284670BD82B041F21800C4F202000168D5
:1002F000022241F001010160016801F00101019158
:100300000199416841F080514160406800F080509F
:10031000009000980420C4F20100016862F31A61A1
:10032000016002B070470000002848BF7047C1B2AA
:1003300000F01F00012202FA00F04EF20012CEF28D
:10034000000242EAD10121F0030108607047000079
:1003500010B54EF60C5CCEF2000CDCF80030C3F3A6
:10036000022E8EF00704042C28BF0424BEF10303E0
:100370004FF0FF3E0EFA04F438BF0023A14399402A
:100380000EFA03F39A43114300F00F0200F16043A9
:100390000901043A03F564436244002848BF02F1AE
:1003A0000C03197010BD00004EF60C51CEF2000186
:1003B0000A684FF6FF031A4060F30A2242F0806099
:1003C00040F0FD7008607047704700002DE9F04371
:1003D00081B0002800F0858042F20008C4F20208D3
:1003E0000446D8F800000D4600F0070088420CD201
:1003F000D8F8000020F007002843C8F80000D8F81B
:10040000000000F00700A8426BD1206841F2040907
:100410008107C4F2020917D5410705D5D9F80010A4
:1004200041F4E061C9F80010010705D5D9F80010C2
:1004300041F46051C9F80010D9F80010A26821F009
:10044000F0011143C9F80010C00741D1D8F80000ED
:1004500000F00700A8420CD9D8F8000020F00700EF
:100460002843C8F80000D8F8000000F00700A842B0
:1004700037D12068410707D5D9F80010E26821F488
:10048000E0611143C9F80010000708D5D9F8000051
:10049000216920F4605040EAC100C9F80000D9F891
:1004A000002002F00C00082841F20020C0F27A007F
:1004B00050D141F26003C2F38341C0F60003595C9E
:1004C000D2033BD440F60010C0F23D00484341E067
:1004D000606802280AD001282AD159F8041C89032F
:1004E00008D4012001B0BDE8F08300BF59F8041C16
:1004F0008901F6D5D9F8001021F003010843C9F8A5
:100500000000FFF7A3FE064641F28837D9F8000045
:10051000616800F00C00B0EB810F97D0FFF796FEFA
:10052000801BB842F2D9032001B0BDE8F08300BFC0
:1005300059F8041C8907D4D5DCE700BFD9F800209E
:1005400041F24E03C2F34042C0F600039A5C4843B6
:10055000B0FBF2F0D9F8001041F25002C1F30311E0
:10056000C0F60002515C40F2080220FA01F140F2AC
:100570000400C2F200000068C2F200021160FFF73E
:100580008DFE002001B0BDE8F08300004C20C4F2D5
:10059000422001210160704710B541F20804C4F205
:1005A00002042068000658BF10BDFFF70DFF802031
:1005B000A07010BD2DE9F04182B0002868D004463B
:1005C000007841F20006C007C4F2020625D0706828
:1005D00000F00C0004281BD0706800F00C00082804
:1005E00002D17068C00313D46068002800F06881ED
:1005F000B0F5A02F00F07C81B0F5803F00F07C8149
:10060000306820F480303060306820F4802076E15B
:100610003068800301D56068D0B32078800718D592
:10062000706810F00C0F07D0706800F00C000828FC
:100630006ED17068C0036BD43068800702D5206922
:10064000012825D13068616920F0F80040EAC10036
:100650003060207800071FD42078400732D4E56945
:1006600095B1706800F00C00082840F08F80012DD3
:100670000ED07068216A00F480328A4208D1616A23
:1006800000F47010884203D1002002B0BDE8F08170
:10069000012002B0BDE8F081A069002862D00020EE
:1006A000C4F242200121C0F88014FFF7CFFD0546B7
:1006B000706A800700F18C80FFF7C8FD401B02289C
:1006C000F6D92AE1F06910F0805808D1F06940F0BD
:1006D0008050F061F06900F080500090009847F27F
:1006E0000007C4F200073868C00529D4386840F410
:1006F00080703860FFF7AAFD054600BF3868C00566
:100700001ED4FFF7A3FD401B6428F7D905E100BF05
:100710002069002840F20000C4F2422000F08280EC
:1007200001210160FFF792FD054600BF3068800798
:100730003FF588AFFFF78AFD401B0228F6D9ECE0B1
:10074000E068002800F08080052800F097800128EC
:1007500000F09880306A20F001003062306A20F0AA
:10076000040092E00020C4F242200021C0F880146E
:10077000FFF76CFD054600BF706A80077FF56CAF20
:10078000FFF764FD401B0228F6D9C6E00027C4F23B
:10079000422700203866FFF759FD022D05460BD190
:1007A0003068800140F1BE80FFF750FD401B0228F9
:1007B0004FF00300F4D968E7306880017FF564AF3B
:1007C000FFF744FD401B02284FF00300F4D95CE71B
:1007D00040F20800C2F20000006844F6D351C1F2B2
:1007E0006201A0FB0101480A019000BF00BF01980F
:1007F000411E002801913FF42FAF00BF0198411E18
:10080000002801913FF428AF00BF0198411E002845
:1008100001913FF421AF00BF0198411E00280191D2
:10082000E4D119E700210160FFF710FD054600BF84
:10083000306880077FF50DAFFFF708FD401B0228E9
:100840004FF00300F4D920E7306A20F00100306255
:10085000306A20F004003062FFF7F8FC054641F2F0
:10086000883700BF306A800720D5FFF7EFFC401BB8
:10087000B8424FF00300F5D907E700BF306A40F0F7
:1008800004003062306A40F001003062FFF7DEFCA5
:10089000054641F2883700BF306A800706D4FFF76B
:1008A000D5FC401BB842F7D937E000BFB8F1000FC4
:1008B0007FF4D5AEF06920F08050F061CFE600BF44
:1008C000306820F480303060306820F48020306060
:1008D000FFF7BCFC054600BF306880037FF59DAE86
:1008E000FFF7B4FC401B64284FF00300F4D9CCE6BA
:1008F000306840F480203060306840F480303060F0
:10090000FFF7A4FC054600BF306880033FF585AEC5
:10091000FFF79CFC401B6428F6D9032002B0BDE819
:10092000F08100BF206AB0F5803F05D17168A268F0
:1009300021F40031114371607168626A21F474110D
:1009400011430843706001203866FFF77FFC0446BE
:10095000306880013FF598AEFFF778FC001B022855
:100960004FF00300F4D990E6411E0020B0EB116F68
:100970001CBF012070474EF21002CEF200025160FF
:100980004EF62351CEF20001F0230B700721906048
:1009900011607047704700007047000010B590F874
:1009A0003C20012A4FF0020233D080F83D2002683B
:1009B000D2F804E0D2F808C00C682EF0700323438C
:1009C00040F2FF74C4F20004A24253600ADCB2F1A8
:1009D000804F13D040F20043C4F200039A420DD07E
:1009E00011E000BF42F60043C4F201039A4205D071
:1009F00040F60003C4F200039A4204D149682CF087
:100A00008003194391600121002280F83D1080F895
:100A10003C20104610BD0000002804BF0120704794
:100A200010B5044690F83D0028B9002084F83C0039
:100A3000204600F067F8022084F83D00206840F26C
:100A4000FF730268C4F2000342F6004C9842C4F2FD
:100A5000010C15DCB0F1804F1AD040F20041C4F215
:100A60000001884214D0984218DCB0F1804F1DD0AC
:100A700040F20041C4F20001884217D01AE000BFE2
:100A8000604505D040F60001C4F200018842EAD179
:100A9000A16822F070020A439842E6DD604505D065
:100AA00040F60001C4F20001884203D1216922F41A
:100AB00040720A43A36922F08001D4F804E0E2689E
:100AC000194360450160C262C0F828E002D1616943
:100AD000CCF8301001214161002084F8461084F8E0
:100AE0003E1084F83F1084F8401084F8411084F8D8
:100AF000421084F8431084F8441084F8451084F8B8
:100B00003D1010BD80B582B00068B0F1804F1CBFB1
:100B100002B080BD41F21C00C4F202000168002254
:100B200041F0010101600068002100F00100019026
:100B300001981C20FFF70CFC1C2002B0BDE880408F
:100B4000FFF7F2BB90F83D1001291CBF0120704750
:100B5000022180F83D10006840F2FF72C168C4F2C3
:100B60000002904241F00101C16009DCB0F1804F08
:100B700012D040F20041C4F2000188420CD012E0D1
:100B800042F60041C4F20101884205D040F600015E
:100B9000C4F20001884206D1816801F007010629EC
:100BA00004BF00207047016841F00101016000208E
:100BB0007047000080B590F83C20012A4FF00202F7
:100BC00000F0BF8080F83D20D0F800C04FF677726B
:100BD000DCF8083023EA0202CCF808200B683F2B2F
:100BE0001CDD5F2B20DD602B50D0B3F5005F6DD096
:100BF000702B40F0A080D1E901E3C968DCF808203F
:100C000043EA0E0322F47F4243EA01211143CCF868
:100C10000810DCF8081041F077018AE01F2B29DC6E
:100C200063B3102B2AD086E0402B63D0502B40F0CA
:100C30008280D1F804E0C968DCF82030DCF820209C
:100C400022F00102CCF82020DCF8182022F0F0027B
:100C500042EA011123F00A0242EA0E02CCF818100F
:100C6000CCF82020DCF8081041F0570121F02001D9
:100C70005FE000BF202B01D0302B5CD1DCF80810E6
:100C800021F07001194341F0070152E0D1F804E06E
:100C9000C968DCF8203023F01003CCF82030DCF8F1
:100CA0001830DCF8202023F4704322F0A00243EA3D
:100CB000013142EA0E12CCF81810CCF82020DCF8F2
:100CC000081041F0670121F0100132E0D1E901E3A1
:100CD000C968DCF8082043EA0E0322F47F4243EAA5
:100CE00001211143CCF80810DCF8081041F48041D0
:100CF0001FE000BFD1F804E0C968DCF82030DCF860
:100D0000202022F00102CCF82020DCF8182022F06C
:100D1000F00242EA011123F00A0242EA0E02CCF884
:100D20001810CCF82020DCF8081041F0470121F021
:100D30003001CCF808100121002280F83D1080F825
:100D40003C20104680BD00007047000010B50168CF
:100D500004460869800744BFC8685FEA807039D4D8
:100D60000869400744BFC8685FEA40703ED408691C
:100D7000000744BFC8685FEA007045D40869C00630
:100D800044BFC8685FEAC0604AD40869C0071CBF96
:100D9000C8685FEAC07051D10869000644BFC868DE
:100DA0005FEA006052D40869400644BFC8685FEA41
:100DB000406053D40869800646BFC8685FEA806017
:100DC00010BD6FF0200220460A61BDE81040FFF719
:100DD000E3BD00BF6FF00200086101202077886941
:100DE000800743D02046FFF7AFFF45E06FF00400D7
:100DF000086102202077886910F4407F40D02046A7
:100E0000FFF7A2FF42E000BF6FF008000861042076
:100E10002077C86980073DD02046FFF795FF3FE067
:100E20006FF01000086108202077C86910F4407F37
:100E30003AD02046FFF788FF3CE000BF6FF001008A
:100E40000861204600F03EF82168A5E76FF08000B9
:100E500008612046FFF79EFD2168A4E76FF040007F
:100E60000861204600F03CF82168A3E7204600F026
:100E700025F8204600F024F82168002020776FE74D
:100E8000204600F01BF8204600F01AF821680020E8
:100E900020776CE7204600F011F8204600F010F8AB
:100EA00021680020207769E7204600F007F82046F7
:100EB00000F006F821680020207766E77047000000
:100EC00070470000016840F27000C2F200008268C2
:100ED000914218BF7047016801F580310160704789
:100EE00070470000FEE70000FEE70000FFF754FB3C
:100EF000FEE700007047000070470000FFF7ACB944
:100F00007047000040F27800C2F20000FFF71EBFF9
:100F1000FEE7000090B0FFF7ADF900240120CDE915
:100F20000B44CDE9094406900A904FF4E0104FF4C9
:100F3000803102250F9006A8CDE90714CDE90D51A7
:100F4000FFF738FB20B1EFF3108072B6FEE700BF69
:100F50000F20CDE900054FF48060CDE90304684619
:100F600002210294FFF732FA20B1EFF3108072B63B
:100F7000FEE700BFFFF70AFB41F21800C4F20200CF
:100F8000016840F2700541F0200101600168C2F281
:100F9000000501F020010691069901684FF080429A
:100FA00041F0040101600068002100F00400069097
:100FB0000698284640F8082F47220991CDE90711E5
:100FC000CDE900114FF6FF734FF40074C0E9012121
:100FD0008021C0E903348161FFF71EFD20B1EFF3EA
:100FE000108072B6FEE700BF4FF4805005F1080490
:100FF000069006A92046FFF7DDFD28B1EFF310802B
:1010000072B600BFFEE700BF69462046FFF7C6FC88
:1010100020B1EFF3108072B6FEE700BF2046FFF765
:10102000FBFC2046FFF78EFDA86800BF416A2A68D6
:1010300011446960416A2A6811446960416A2A68FA
:1010400011446960416A2A6811446960EEE701024F
:101050000000000000000000010203040607080968
:1010600002030405060708090A0B0C0D0E0F1010E9
:101070009010000800000020100000002801000867
:10108000A010000810000020B8060000440100086D
:1010900001000000100000000024F4000000000027
:04000005080000ED02
:00000001FF
